{
  "_format": "hh-sol-artifact-1",
  "contractName": "horoscopeNFT",
  "sourceName": "contracts/horoscopeNFT.sol",
  "abi": [
    {
      "inputs": [],
      "stateMutability": "nonpayable",
      "type": "constructor"
    },
    {
      "inputs": [
        {
          "internalType": "address",
          "name": "sender",
          "type": "address"
        },
        {
          "internalType": "uint256",
          "name": "tokenId",
          "type": "uint256"
        },
        {
          "internalType": "address",
          "name": "owner",
          "type": "address"
        }
      ],
      "name": "ERC721IncorrectOwner",
      "type": "error"
    },
    {
      "inputs": [
        {
          "internalType": "address",
          "name": "operator",
          "type": "address"
        },
        {
          "internalType": "uint256",
          "name": "tokenId",
          "type": "uint256"
        }
      ],
      "name": "ERC721InsufficientApproval",
      "type": "error"
    },
    {
      "inputs": [
        {
          "internalType": "address",
          "name": "approver",
          "type": "address"
        }
      ],
      "name": "ERC721InvalidApprover",
      "type": "error"
    },
    {
      "inputs": [
        {
          "internalType": "address",
          "name": "operator",
          "type": "address"
        }
      ],
      "name": "ERC721InvalidOperator",
      "type": "error"
    },
    {
      "inputs": [
        {
          "internalType": "address",
          "name": "owner",
          "type": "address"
        }
      ],
      "name": "ERC721InvalidOwner",
      "type": "error"
    },
    {
      "inputs": [
        {
          "internalType": "address",
          "name": "receiver",
          "type": "address"
        }
      ],
      "name": "ERC721InvalidReceiver",
      "type": "error"
    },
    {
      "inputs": [
        {
          "internalType": "address",
          "name": "sender",
          "type": "address"
        }
      ],
      "name": "ERC721InvalidSender",
      "type": "error"
    },
    {
      "inputs": [
        {
          "internalType": "uint256",
          "name": "tokenId",
          "type": "uint256"
        }
      ],
      "name": "ERC721NonexistentToken",
      "type": "error"
    },
    {
      "anonymous": false,
      "inputs": [
        {
          "indexed": true,
          "internalType": "address",
          "name": "owner",
          "type": "address"
        },
        {
          "indexed": true,
          "internalType": "address",
          "name": "approved",
          "type": "address"
        },
        {
          "indexed": true,
          "internalType": "uint256",
          "name": "tokenId",
          "type": "uint256"
        }
      ],
      "name": "Approval",
      "type": "event"
    },
    {
      "anonymous": false,
      "inputs": [
        {
          "indexed": true,
          "internalType": "address",
          "name": "owner",
          "type": "address"
        },
        {
          "indexed": true,
          "internalType": "address",
          "name": "operator",
          "type": "address"
        },
        {
          "indexed": false,
          "internalType": "bool",
          "name": "approved",
          "type": "bool"
        }
      ],
      "name": "ApprovalForAll",
      "type": "event"
    },
    {
      "anonymous": false,
      "inputs": [
        {
          "indexed": false,
          "internalType": "uint256",
          "name": "_fromTokenId",
          "type": "uint256"
        },
        {
          "indexed": false,
          "internalType": "uint256",
          "name": "_toTokenId",
          "type": "uint256"
        }
      ],
      "name": "BatchMetadataUpdate",
      "type": "event"
    },
    {
      "anonymous": false,
      "inputs": [
        {
          "indexed": false,
          "internalType": "uint256",
          "name": "_tokenId",
          "type": "uint256"
        }
      ],
      "name": "MetadataUpdate",
      "type": "event"
    },
    {
      "anonymous": false,
      "inputs": [
        {
          "indexed": true,
          "internalType": "address",
          "name": "from",
          "type": "address"
        },
        {
          "indexed": true,
          "internalType": "address",
          "name": "to",
          "type": "address"
        },
        {
          "indexed": true,
          "internalType": "uint256",
          "name": "tokenId",
          "type": "uint256"
        }
      ],
      "name": "Transfer",
      "type": "event"
    },
    {
      "inputs": [
        {
          "internalType": "address",
          "name": "to",
          "type": "address"
        },
        {
          "internalType": "uint256",
          "name": "tokenId",
          "type": "uint256"
        }
      ],
      "name": "approve",
      "outputs": [],
      "stateMutability": "nonpayable",
      "type": "function"
    },
    {
      "inputs": [
        {
          "internalType": "address",
          "name": "owner",
          "type": "address"
        }
      ],
      "name": "balanceOf",
      "outputs": [
        {
          "internalType": "uint256",
          "name": "",
          "type": "uint256"
        }
      ],
      "stateMutability": "view",
      "type": "function"
    },
    {
      "inputs": [
        {
          "internalType": "uint256",
          "name": "tokenId",
          "type": "uint256"
        }
      ],
      "name": "getApproved",
      "outputs": [
        {
          "internalType": "address",
          "name": "",
          "type": "address"
        }
      ],
      "stateMutability": "view",
      "type": "function"
    },
    {
      "inputs": [
        {
          "internalType": "address",
          "name": "owner",
          "type": "address"
        },
        {
          "internalType": "address",
          "name": "operator",
          "type": "address"
        }
      ],
      "name": "isApprovedForAll",
      "outputs": [
        {
          "internalType": "bool",
          "name": "",
          "type": "bool"
        }
      ],
      "stateMutability": "view",
      "type": "function"
    },
    {
      "inputs": [
        {
          "internalType": "address",
          "name": "recipient",
          "type": "address"
        },
        {
          "internalType": "string",
          "name": "zodiacSign",
          "type": "string"
        }
      ],
      "name": "mintNFT",
      "outputs": [
        {
          "internalType": "uint256",
          "name": "",
          "type": "uint256"
        }
      ],
      "stateMutability": "nonpayable",
      "type": "function"
    },
    {
      "inputs": [],
      "name": "name",
      "outputs": [
        {
          "internalType": "string",
          "name": "",
          "type": "string"
        }
      ],
      "stateMutability": "view",
      "type": "function"
    },
    {
      "inputs": [
        {
          "internalType": "uint256",
          "name": "tokenId",
          "type": "uint256"
        }
      ],
      "name": "ownerOf",
      "outputs": [
        {
          "internalType": "address",
          "name": "",
          "type": "address"
        }
      ],
      "stateMutability": "view",
      "type": "function"
    },
    {
      "inputs": [
        {
          "internalType": "address",
          "name": "from",
          "type": "address"
        },
        {
          "internalType": "address",
          "name": "to",
          "type": "address"
        },
        {
          "internalType": "uint256",
          "name": "tokenId",
          "type": "uint256"
        }
      ],
      "name": "safeTransferFrom",
      "outputs": [],
      "stateMutability": "nonpayable",
      "type": "function"
    },
    {
      "inputs": [
        {
          "internalType": "address",
          "name": "from",
          "type": "address"
        },
        {
          "internalType": "address",
          "name": "to",
          "type": "address"
        },
        {
          "internalType": "uint256",
          "name": "tokenId",
          "type": "uint256"
        },
        {
          "internalType": "bytes",
          "name": "data",
          "type": "bytes"
        }
      ],
      "name": "safeTransferFrom",
      "outputs": [],
      "stateMutability": "nonpayable",
      "type": "function"
    },
    {
      "inputs": [
        {
          "internalType": "address",
          "name": "operator",
          "type": "address"
        },
        {
          "internalType": "bool",
          "name": "approved",
          "type": "bool"
        }
      ],
      "name": "setApprovalForAll",
      "outputs": [],
      "stateMutability": "nonpayable",
      "type": "function"
    },
    {
      "inputs": [
        {
          "internalType": "bytes4",
          "name": "interfaceId",
          "type": "bytes4"
        }
      ],
      "name": "supportsInterface",
      "outputs": [
        {
          "internalType": "bool",
          "name": "",
          "type": "bool"
        }
      ],
      "stateMutability": "view",
      "type": "function"
    },
    {
      "inputs": [],
      "name": "symbol",
      "outputs": [
        {
          "internalType": "string",
          "name": "",
          "type": "string"
        }
      ],
      "stateMutability": "view",
      "type": "function"
    },
    {
      "inputs": [
        {
          "internalType": "uint256",
          "name": "tokenId",
          "type": "uint256"
        }
      ],
      "name": "tokenURI",
      "outputs": [
        {
          "internalType": "string",
          "name": "",
          "type": "string"
        }
      ],
      "stateMutability": "view",
      "type": "function"
    },
    {
      "inputs": [
        {
          "internalType": "address",
          "name": "from",
          "type": "address"
        },
        {
          "internalType": "address",
          "name": "to",
          "type": "address"
        },
        {
          "internalType": "uint256",
          "name": "tokenId",
          "type": "uint256"
        }
      ],
      "name": "transferFrom",
      "outputs": [],
      "stateMutability": "nonpayable",
      "type": "function"
    }
  ],
  "bytecode": "0x608060405260405180610160016040528061013181526020016200311161013191396008908162000031919062000352565b503480156200003f57600080fd5b506040518060400160405280600981526020017f486f726f73636f706500000000000000000000000000000000000000000000008152506040518060400160405280600481526020017f48534350000000000000000000000000000000000000000000000000000000008152508160009081620000bd919062000352565b508060019081620000cf919062000352565b50505062000439565b600081519050919050565b7f4e487b7100000000000000000000000000000000000000000000000000000000600052604160045260246000fd5b7f4e487b7100000000000000000000000000000000000000000000000000000000600052602260045260246000fd5b600060028204905060018216806200015a57607f821691505b60208210810362000170576200016f62000112565b5b50919050565b60008190508160005260206000209050919050565b60006020601f8301049050919050565b600082821b905092915050565b600060088302620001da7fffffffffffffffffffffffffffffffffffffffffffffffffffffffffffffffff826200019b565b620001e686836200019b565b95508019841693508086168417925050509392505050565b6000819050919050565b6000819050919050565b6000620002336200022d6200022784620001fe565b62000208565b620001fe565b9050919050565b6000819050919050565b6200024f8362000212565b620002676200025e826200023a565b848454620001a8565b825550505050565b600090565b6200027e6200026f565b6200028b81848462000244565b505050565b5b81811015620002b357620002a760008262000274565b60018101905062000291565b5050565b601f8211156200030257620002cc8162000176565b620002d7846200018b565b81016020851015620002e7578190505b620002ff620002f6856200018b565b83018262000290565b50505b505050565b600082821c905092915050565b6000620003276000198460080262000307565b1980831691505092915050565b600062000342838362000314565b9150826002028217905092915050565b6200035d82620000d8565b67ffffffffffffffff811115620003795762000378620000e3565b5b62000385825462000141565b62000392828285620002b7565b600060209050601f831160018114620003ca5760008415620003b5578287015190505b620003c1858262000334565b86555062000431565b601f198416620003da8662000176565b60005b828110156200040457848901518255600182019150602085019450602081019050620003dd565b8683101562000424578489015162000420601f89168262000314565b8355505b6001600288020188555050505b505050505050565b612cc880620004496000396000f3fe608060405234801561001057600080fd5b50600436106100ea5760003560e01c806370a082311161008c578063b88d4fde11610066578063b88d4fde1461025b578063c87b56dd14610277578063e985e9c5146102a7578063eacabe14146102d7576100ea565b806370a08231146101f157806395d89b4114610221578063a22cb4651461023f576100ea565b8063095ea7b3116100c8578063095ea7b31461016d57806323b872dd1461018957806342842e0e146101a55780636352211e146101c1576100ea565b806301ffc9a7146100ef57806306fdde031461011f578063081812fc1461013d575b600080fd5b61010960048036038101906101049190611be8565b610307565b6040516101169190611c30565b60405180910390f35b610127610368565b6040516101349190611cdb565b60405180910390f35b61015760048036038101906101529190611d33565b6103fa565b6040516101649190611da1565b60405180910390f35b61018760048036038101906101829190611de8565b610416565b005b6101a3600480360381019061019e9190611e28565b61042c565b005b6101bf60048036038101906101ba9190611e28565b61052e565b005b6101db60048036038101906101d69190611d33565b61054e565b6040516101e89190611da1565b60405180910390f35b61020b60048036038101906102069190611e7b565b610560565b6040516102189190611eb7565b60405180910390f35b61022961061a565b6040516102369190611cdb565b60405180910390f35b61025960048036038101906102549190611efe565b6106ac565b005b61027560048036038101906102709190612073565b6106c2565b005b610291600480360381019061028c9190611d33565b6106df565b60405161029e9190611cdb565b60405180910390f35b6102c160048036038101906102bc91906120f6565b6107f2565b6040516102ce9190611c30565b60405180910390f35b6102f160048036038101906102ec91906121d7565b610886565b6040516102fe9190611eb7565b60405180910390f35b6000634906490660e01b7bffffffffffffffffffffffffffffffffffffffffffffffffffffffff1916827bffffffffffffffffffffffffffffffffffffffffffffffffffffffff191614806103615750610360826109a6565b5b9050919050565b60606000805461037790612262565b80601f01602080910402602001604051908101604052809291908181526020018280546103a390612262565b80156103f05780601f106103c5576101008083540402835291602001916103f0565b820191906000526020600020905b8154815290600101906020018083116103d357829003601f168201915b5050505050905090565b600061040582610a88565b5061040f82610b10565b9050919050565b6104288282610423610b4d565b610b55565b5050565b600073ffffffffffffffffffffffffffffffffffffffff168273ffffffffffffffffffffffffffffffffffffffff160361049e5760006040517f64a0ae920000000000000000000000000000000000000000000000000000000081526004016104959190611da1565b60405180910390fd5b60006104b283836104ad610b4d565b610b67565b90508373ffffffffffffffffffffffffffffffffffffffff168173ffffffffffffffffffffffffffffffffffffffff1614610528578382826040517f64283d7b00000000000000000000000000000000000000000000000000000000815260040161051f93929190612293565b60405180910390fd5b50505050565b610549838383604051806020016040528060008152506106c2565b505050565b600061055982610a88565b9050919050565b60008073ffffffffffffffffffffffffffffffffffffffff168273ffffffffffffffffffffffffffffffffffffffff16036105d35760006040517f89c62b640000000000000000000000000000000000000000000000000000000081526004016105ca9190611da1565b60405180910390fd5b600360008373ffffffffffffffffffffffffffffffffffffffff1673ffffffffffffffffffffffffffffffffffffffff168152602001908152602001600020549050919050565b60606001805461062990612262565b80601f016020809104026020016040519081016040528092919081815260200182805461065590612262565b80156106a25780601f10610677576101008083540402835291602001916106a2565b820191906000526020600020905b81548152906001019060200180831161068557829003601f168201915b5050505050905090565b6106be6106b7610b4d565b8383610d81565b5050565b6106cd84848461042c565b6106d984848484610ef0565b50505050565b60606106ea82610a88565b50600060066000848152602001908152602001600020805461070b90612262565b80601f016020809104026020016040519081016040528092919081815260200182805461073790612262565b80156107845780601f1061075957610100808354040283529160200191610784565b820191906000526020600020905b81548152906001019060200180831161076757829003601f168201915b5050505050905060006107956110a7565b905060008151036107aa5781925050506107ed565b6000825111156107df5780826040516020016107c7929190612306565b604051602081830303815290604052925050506107ed565b6107e8846110be565b925050505b919050565b6000600560008473ffffffffffffffffffffffffffffffffffffffff1673ffffffffffffffffffffffffffffffffffffffff16815260200190815260200160002060008373ffffffffffffffffffffffffffffffffffffffff1673ffffffffffffffffffffffffffffffffffffffff16815260200190815260200160002060009054906101000a900460ff16905092915050565b60008060088360405160200161089d92919061240e565b604051602081830303815290604052905060006108e484856108be85611127565b6040516020016108d093929190612605565b604051602081830303815290604052611127565b90506000816040516020016108f991906126ae565b60405160208183030381529060405290506109496040518060400160405280600f81526020017f6d73672e73656e6465722d2d25732000000000000000000000000000000000008152503361128a565b600060076000815461095a906126ff565b919050819055905061096c3382611326565b610976818361141f565b610999604051806060016040528060238152602001612c3060239139823361147b565b8094505050505092915050565b60007f80ac58cd000000000000000000000000000000000000000000000000000000007bffffffffffffffffffffffffffffffffffffffffffffffffffffffff1916827bffffffffffffffffffffffffffffffffffffffffffffffffffffffff19161480610a7157507f5b5e139f000000000000000000000000000000000000000000000000000000007bffffffffffffffffffffffffffffffffffffffffffffffffffffffff1916827bffffffffffffffffffffffffffffffffffffffffffffffffffffffff1916145b80610a815750610a808261151a565b5b9050919050565b600080610a9483611584565b9050600073ffffffffffffffffffffffffffffffffffffffff168173ffffffffffffffffffffffffffffffffffffffff1603610b0757826040517f7e273289000000000000000000000000000000000000000000000000000000008152600401610afe9190611eb7565b60405180910390fd5b80915050919050565b60006004600083815260200190815260200160002060009054906101000a900473ffffffffffffffffffffffffffffffffffffffff169050919050565b600033905090565b610b6283838360016115c1565b505050565b600080610b7384611584565b9050600073ffffffffffffffffffffffffffffffffffffffff168373ffffffffffffffffffffffffffffffffffffffff1614610bb557610bb4818486611786565b5b600073ffffffffffffffffffffffffffffffffffffffff168173ffffffffffffffffffffffffffffffffffffffff1614610c4657610bf76000856000806115c1565b6001600360008373ffffffffffffffffffffffffffffffffffffffff1673ffffffffffffffffffffffffffffffffffffffff168152602001908152602001600020600082825403925050819055505b600073ffffffffffffffffffffffffffffffffffffffff168573ffffffffffffffffffffffffffffffffffffffff1614610cc9576001600360008773ffffffffffffffffffffffffffffffffffffffff1673ffffffffffffffffffffffffffffffffffffffff168152602001908152602001600020600082825401925050819055505b846002600086815260200190815260200160002060006101000a81548173ffffffffffffffffffffffffffffffffffffffff021916908373ffffffffffffffffffffffffffffffffffffffff160217905550838573ffffffffffffffffffffffffffffffffffffffff168273ffffffffffffffffffffffffffffffffffffffff167fddf252ad1be2c89b69c2b068fc378daa952ba7f163c4a11628f55a4df523b3ef60405160405180910390a4809150509392505050565b600073ffffffffffffffffffffffffffffffffffffffff168273ffffffffffffffffffffffffffffffffffffffff1603610df257816040517f5b08ba18000000000000000000000000000000000000000000000000000000008152600401610de99190611da1565b60405180910390fd5b80600560008573ffffffffffffffffffffffffffffffffffffffff1673ffffffffffffffffffffffffffffffffffffffff16815260200190815260200160002060008473ffffffffffffffffffffffffffffffffffffffff1673ffffffffffffffffffffffffffffffffffffffff16815260200190815260200160002060006101000a81548160ff0219169083151502179055508173ffffffffffffffffffffffffffffffffffffffff168373ffffffffffffffffffffffffffffffffffffffff167f17307eab39ab6107e8899845ad3d59bd9653f200f220920489ca2b5937696c3183604051610ee39190611c30565b60405180910390a3505050565b60008373ffffffffffffffffffffffffffffffffffffffff163b11156110a1578273ffffffffffffffffffffffffffffffffffffffff1663150b7a02610f34610b4d565b8685856040518563ffffffff1660e01b8152600401610f56949392919061279c565b6020604051808303816000875af1925050508015610f9257506040513d601f19601f82011682018060405250810190610f8f91906127fd565b60015b611016573d8060008114610fc2576040519150601f19603f3d011682016040523d82523d6000602084013e610fc7565b606091505b50600081510361100e57836040517f64a0ae920000000000000000000000000000000000000000000000000000000081526004016110059190611da1565b60405180910390fd5b805181602001fd5b63150b7a0260e01b7bffffffffffffffffffffffffffffffffffffffffffffffffffffffff1916817bffffffffffffffffffffffffffffffffffffffffffffffffffffffff19161461109f57836040517f64a0ae920000000000000000000000000000000000000000000000000000000081526004016110969190611da1565b60405180910390fd5b505b50505050565b606060405180602001604052806000815250905090565b60606110c982610a88565b5060006110d46110a7565b905060008151116110f4576040518060200160405280600081525061111f565b806110fe8461184a565b60405160200161110f929190612306565b6040516020818303038152906040525b915050919050565b6060600082510361114957604051806020016040528060008152509050611285565b6000604051806060016040528060408152602001612c536040913990506000600360028551611178919061282a565b611182919061288d565b600461118e91906128be565b67ffffffffffffffff8111156111a7576111a6611f48565b5b6040519080825280601f01601f1916602001820160405280156111d95781602001600182028036833780820191505090505b509050600182016020820185865187015b80821015611245576003820191508151603f8160121c168501518453600184019350603f81600c1c168501518453600184019350603f8160061c168501518453600184019350603f81168501518453600184019350506111ea565b505060038651066001811461126157600281146112745761127c565b603d6001830353603d600283035361127c565b603d60018303535b50505080925050505b919050565b61132282826040516024016112a0929190612900565b6040516020818303038152906040527f319af333000000000000000000000000000000000000000000000000000000007bffffffffffffffffffffffffffffffffffffffffffffffffffffffff19166020820180517bffffffffffffffffffffffffffffffffffffffffffffffffffffffff8381831617835250505050611918565b5050565b600073ffffffffffffffffffffffffffffffffffffffff168273ffffffffffffffffffffffffffffffffffffffff16036113985760006040517f64a0ae9200000000000000000000000000000000000000000000000000000000815260040161138f9190611da1565b60405180910390fd5b60006113a683836000610b67565b9050600073ffffffffffffffffffffffffffffffffffffffff168173ffffffffffffffffffffffffffffffffffffffff161461141a5760006040517f73c6ac6e0000000000000000000000000000000000000000000000000000000081526004016114119190611da1565b60405180910390fd5b505050565b8060066000848152602001908152602001600020908161143f9190612ac7565b507ff8e1a15aba9398e019f0b49df1a4fde98ee17ae345cb5f6b5e2c27f5033e8ce78260405161146f9190611eb7565b60405180910390a15050565b61151583838360405160240161149393929190612b99565b6040516020818303038152906040527f1c7ec448000000000000000000000000000000000000000000000000000000007bffffffffffffffffffffffffffffffffffffffffffffffffffffffff19166020820180517bffffffffffffffffffffffffffffffffffffffffffffffffffffffff8381831617835250505050611918565b505050565b60007f01ffc9a7000000000000000000000000000000000000000000000000000000007bffffffffffffffffffffffffffffffffffffffffffffffffffffffff1916827bffffffffffffffffffffffffffffffffffffffffffffffffffffffff1916149050919050565b60006002600083815260200190815260200160002060009054906101000a900473ffffffffffffffffffffffffffffffffffffffff169050919050565b80806115fa5750600073ffffffffffffffffffffffffffffffffffffffff168273ffffffffffffffffffffffffffffffffffffffff1614155b1561172e57600061160a84610a88565b9050600073ffffffffffffffffffffffffffffffffffffffff168373ffffffffffffffffffffffffffffffffffffffff161415801561167557508273ffffffffffffffffffffffffffffffffffffffff168173ffffffffffffffffffffffffffffffffffffffff1614155b8015611688575061168681846107f2565b155b156116ca57826040517fa9fbf51f0000000000000000000000000000000000000000000000000000000081526004016116c19190611da1565b60405180910390fd5b811561172c57838573ffffffffffffffffffffffffffffffffffffffff168273ffffffffffffffffffffffffffffffffffffffff167f8c5be1e5ebec7d5bd14f71427d1e84f3dd0314c0f7b2291e5b200ac8c7c3b92560405160405180910390a45b505b836004600085815260200190815260200160002060006101000a81548173ffffffffffffffffffffffffffffffffffffffff021916908373ffffffffffffffffffffffffffffffffffffffff16021790555050505050565b611791838383611932565b61184557600073ffffffffffffffffffffffffffffffffffffffff168373ffffffffffffffffffffffffffffffffffffffff160361180657806040517f7e2732890000000000000000000000000000000000000000000000000000000081526004016117fd9190611eb7565b60405180910390fd5b81816040517f177e802f00000000000000000000000000000000000000000000000000000000815260040161183c929190612bd7565b60405180910390fd5b505050565b606060006001611859846119f3565b01905060008167ffffffffffffffff81111561187857611877611f48565b5b6040519080825280601f01601f1916602001820160405280156118aa5781602001600182028036833780820191505090505b509050600082602001820190505b60011561190d578080600190039150507f3031323334353637383961626364656600000000000000000000000000000000600a86061a8153600a85816119015761190061285e565b5b049450600085036118b8575b819350505050919050565b61192f81611927611b46611b67565b63ffffffff16565b50565b60008073ffffffffffffffffffffffffffffffffffffffff168373ffffffffffffffffffffffffffffffffffffffff16141580156119ea57508273ffffffffffffffffffffffffffffffffffffffff168473ffffffffffffffffffffffffffffffffffffffff1614806119ab57506119aa84846107f2565b5b806119e957508273ffffffffffffffffffffffffffffffffffffffff166119d183610b10565b73ffffffffffffffffffffffffffffffffffffffff16145b5b90509392505050565b600080600090507a184f03e93ff9f4daa797ed6e38ed64bf6a1f0100000000000000008310611a51577a184f03e93ff9f4daa797ed6e38ed64bf6a1f0100000000000000008381611a4757611a4661285e565b5b0492506040810190505b6d04ee2d6d415b85acef81000000008310611a8e576d04ee2d6d415b85acef81000000008381611a8457611a8361285e565b5b0492506020810190505b662386f26fc100008310611abd57662386f26fc100008381611ab357611ab261285e565b5b0492506010810190505b6305f5e1008310611ae6576305f5e1008381611adc57611adb61285e565b5b0492506008810190505b6127108310611b0b576127108381611b0157611b0061285e565b5b0492506004810190505b60648310611b2e5760648381611b2457611b2361285e565b5b0492506002810190505b600a8310611b3d576001810190505b80915050919050565b60006a636f6e736f6c652e6c6f679050600080835160208501845afa505050565b611b72819050919050565b611b7a612c00565b565b6000604051905090565b600080fd5b600080fd5b60007fffffffff0000000000000000000000000000000000000000000000000000000082169050919050565b611bc581611b90565b8114611bd057600080fd5b50565b600081359050611be281611bbc565b92915050565b600060208284031215611bfe57611bfd611b86565b5b6000611c0c84828501611bd3565b91505092915050565b60008115159050919050565b611c2a81611c15565b82525050565b6000602082019050611c456000830184611c21565b92915050565b600081519050919050565b600082825260208201905092915050565b60005b83811015611c85578082015181840152602081019050611c6a565b60008484015250505050565b6000601f19601f8301169050919050565b6000611cad82611c4b565b611cb78185611c56565b9350611cc7818560208601611c67565b611cd081611c91565b840191505092915050565b60006020820190508181036000830152611cf58184611ca2565b905092915050565b6000819050919050565b611d1081611cfd565b8114611d1b57600080fd5b50565b600081359050611d2d81611d07565b92915050565b600060208284031215611d4957611d48611b86565b5b6000611d5784828501611d1e565b91505092915050565b600073ffffffffffffffffffffffffffffffffffffffff82169050919050565b6000611d8b82611d60565b9050919050565b611d9b81611d80565b82525050565b6000602082019050611db66000830184611d92565b92915050565b611dc581611d80565b8114611dd057600080fd5b50565b600081359050611de281611dbc565b92915050565b60008060408385031215611dff57611dfe611b86565b5b6000611e0d85828601611dd3565b9250506020611e1e85828601611d1e565b9150509250929050565b600080600060608486031215611e4157611e40611b86565b5b6000611e4f86828701611dd3565b9350506020611e6086828701611dd3565b9250506040611e7186828701611d1e565b9150509250925092565b600060208284031215611e9157611e90611b86565b5b6000611e9f84828501611dd3565b91505092915050565b611eb181611cfd565b82525050565b6000602082019050611ecc6000830184611ea8565b92915050565b611edb81611c15565b8114611ee657600080fd5b50565b600081359050611ef881611ed2565b92915050565b60008060408385031215611f1557611f14611b86565b5b6000611f2385828601611dd3565b9250506020611f3485828601611ee9565b9150509250929050565b600080fd5b600080fd5b7f4e487b7100000000000000000000000000000000000000000000000000000000600052604160045260246000fd5b611f8082611c91565b810181811067ffffffffffffffff82111715611f9f57611f9e611f48565b5b80604052505050565b6000611fb2611b7c565b9050611fbe8282611f77565b919050565b600067ffffffffffffffff821115611fde57611fdd611f48565b5b611fe782611c91565b9050602081019050919050565b82818337600083830152505050565b600061201661201184611fc3565b611fa8565b90508281526020810184848401111561203257612031611f43565b5b61203d848285611ff4565b509392505050565b600082601f83011261205a57612059611f3e565b5b813561206a848260208601612003565b91505092915050565b6000806000806080858703121561208d5761208c611b86565b5b600061209b87828801611dd3565b94505060206120ac87828801611dd3565b93505060406120bd87828801611d1e565b925050606085013567ffffffffffffffff8111156120de576120dd611b8b565b5b6120ea87828801612045565b91505092959194509250565b6000806040838503121561210d5761210c611b86565b5b600061211b85828601611dd3565b925050602061212c85828601611dd3565b9150509250929050565b600067ffffffffffffffff82111561215157612150611f48565b5b61215a82611c91565b9050602081019050919050565b600061217a61217584612136565b611fa8565b90508281526020810184848401111561219657612195611f43565b5b6121a1848285611ff4565b509392505050565b600082601f8301126121be576121bd611f3e565b5b81356121ce848260208601612167565b91505092915050565b600080604083850312156121ee576121ed611b86565b5b60006121fc85828601611dd3565b925050602083013567ffffffffffffffff81111561221d5761221c611b8b565b5b612229858286016121a9565b9150509250929050565b7f4e487b7100000000000000000000000000000000000000000000000000000000600052602260045260246000fd5b6000600282049050600182168061227a57607f821691505b60208210810361228d5761228c612233565b5b50919050565b60006060820190506122a86000830186611d92565b6122b56020830185611ea8565b6122c26040830184611d92565b949350505050565b600081905092915050565b60006122e082611c4b565b6122ea81856122ca565b93506122fa818560208601611c67565b80840191505092915050565b600061231282856122d5565b915061231e82846122d5565b91508190509392505050565b60008190508160005260206000209050919050565b6000815461234c81612262565b61235681866122ca565b945060018216600081146123715760018114612386576123b9565b60ff19831686528115158202860193506123b9565b61238f8561232a565b60005b838110156123b157815481890152600182019150602081019050612392565b838801955050505b50505092915050565b7f3c2f746578743e3c2f7376673e00000000000000000000000000000000000000600082015250565b60006123f8600d836122ca565b9150612403826123c2565b600d82019050919050565b600061241a828561233f565b915061242682846122d5565b9150612431826123eb565b91508190509392505050565b7f7b226e616d65223a202200000000000000000000000000000000000000000000600082015250565b6000612473600a836122ca565b915061247e8261243d565b600a82019050919050565b7f222c20226465736372697074696f6e223a20224f6e2d636861696e205a6f646960008201527f6163205369676e204e465473222c202261747472696275746573223a205b7b2260208201527f74726169745f74797065223a20225a6f64696163205369676e222c202276616c60408201527f7565223a20220000000000000000000000000000000000000000000000000000606082015250565b60006125316066836122ca565b915061253c82612489565b606682019050919050565b7f227d5d2c2022696d616765223a2022646174613a696d6167652f7376672b786d60008201527f6c3b6261736536342c0000000000000000000000000000000000000000000000602082015250565b60006125a36029836122ca565b91506125ae82612547565b602982019050919050565b7f227d000000000000000000000000000000000000000000000000000000000000600082015250565b60006125ef6002836122ca565b91506125fa826125b9565b600282019050919050565b600061261082612466565b915061261c82866122d5565b915061262782612524565b915061263382856122d5565b915061263e82612596565b915061264a82846122d5565b9150612655826125e2565b9150819050949350505050565b7f646174613a6170706c69636174696f6e2f6a736f6e3b6261736536342c000000600082015250565b6000612698601d836122ca565b91506126a382612662565b601d82019050919050565b60006126b98261268b565b91506126c582846122d5565b915081905092915050565b7f4e487b7100000000000000000000000000000000000000000000000000000000600052601160045260246000fd5b600061270a82611cfd565b91507fffffffffffffffffffffffffffffffffffffffffffffffffffffffffffffffff820361273c5761273b6126d0565b5b600182019050919050565b600081519050919050565b600082825260208201905092915050565b600061276e82612747565b6127788185612752565b9350612788818560208601611c67565b61279181611c91565b840191505092915050565b60006080820190506127b16000830187611d92565b6127be6020830186611d92565b6127cb6040830185611ea8565b81810360608301526127dd8184612763565b905095945050505050565b6000815190506127f781611bbc565b92915050565b60006020828403121561281357612812611b86565b5b6000612821848285016127e8565b91505092915050565b600061283582611cfd565b915061284083611cfd565b9250828201905080821115612858576128576126d0565b5b92915050565b7f4e487b7100000000000000000000000000000000000000000000000000000000600052601260045260246000fd5b600061289882611cfd565b91506128a383611cfd565b9250826128b3576128b261285e565b5b828204905092915050565b60006128c982611cfd565b91506128d483611cfd565b92508282026128e281611cfd565b915082820484148315176128f9576128f86126d0565b5b5092915050565b6000604082019050818103600083015261291a8185611ca2565b90506129296020830184611d92565b9392505050565b60006020601f8301049050919050565b600082821b905092915050565b60006008830261297d7fffffffffffffffffffffffffffffffffffffffffffffffffffffffffffffffff82612940565b6129878683612940565b95508019841693508086168417925050509392505050565b6000819050919050565b60006129c46129bf6129ba84611cfd565b61299f565b611cfd565b9050919050565b6000819050919050565b6129de836129a9565b6129f26129ea826129cb565b84845461294d565b825550505050565b600090565b612a076129fa565b612a128184846129d5565b505050565b5b81811015612a3657612a2b6000826129ff565b600181019050612a18565b5050565b601f821115612a7b57612a4c8161232a565b612a5584612930565b81016020851015612a64578190505b612a78612a7085612930565b830182612a17565b50505b505050565b600082821c905092915050565b6000612a9e60001984600802612a80565b1980831691505092915050565b6000612ab78383612a8d565b9150826002028217905092915050565b612ad082611c4b565b67ffffffffffffffff811115612ae957612ae8611f48565b5b612af38254612262565b612afe828285612a3a565b600060209050601f831160018114612b315760008415612b1f578287015190505b612b298582612aab565b865550612b91565b601f198416612b3f8661232a565b60005b82811015612b6757848901518255600182019150602085019450602081019050612b42565b86831015612b845784890151612b80601f891682612a8d565b8355505b6001600288020188555050505b505050505050565b60006060820190508181036000830152612bb38186611ca2565b9050612bc26020830185611ea8565b612bcf6040830184611d92565b949350505050565b6000604082019050612bec6000830185611d92565b612bf96020830184611ea8565b9392505050565b7f4e487b7100000000000000000000000000000000000000000000000000000000600052605160045260246000fdfe546865204e465420494420257320686173206265656e206d696e74656420746f2025734142434445464748494a4b4c4d4e4f505152535455565758595a6162636465666768696a6b6c6d6e6f707172737475767778797a303132333435363738392b2fa2646970667358221220dd3291c31180c431666764557c9111d10c23a880524921e502dcaa437d3bfcba64736f6c634300081400333c73766720786d6c6e733d273c687474703a2f2f7777772e77332e6f72672f323030302f7376673e27207072657365727665417370656374526174696f3d27784d696e594d696e206d656574272076696577426f783d273020302033353020333530273e3c7374796c653e2e62617365207b2066696c6c3a2077686974653b20666f6e742d66616d696c793a2073657269663b20666f6e742d73697a653a20323470783b207d3c2f7374796c653e3c726563742077696474683d273130302527206865696768743d2731303025272066696c6c3d27626c61636b27202f3e3c7465787420783d273530252720793d273530252720636c6173733d27626173652720646f6d696e616e742d626173656c696e653d276d6964646c652720746578742d616e63686f723d276d6964646c65273e",
  "linkReferences": {},
  "deployedLinkReferences": {}
}