{
  "abi": [
    {
      "type": "constructor",
      "inputs": [
        {
          "name": "_creationFeePercentage",
          "type": "uint256",
          "internalType": "uint256"
        },
        {
          "name": "_purchaseFeePercentage",
          "type": "uint256",
          "internalType": "uint256"
        }
      ],
      "stateMutability": "nonpayable"
    },
    {
      "type": "function",
      "name": "approve",
      "inputs": [
        {
          "name": "to",
          "type": "address",
          "internalType": "address"
        },
        {
          "name": "tokenId",
          "type": "uint256",
          "internalType": "uint256"
        }
      ],
      "outputs": [],
      "stateMutability": "nonpayable"
    },
    {
      "type": "function",
      "name": "balanceOf",
      "inputs": [
        {
          "name": "owner",
          "type": "address",
          "internalType": "address"
        }
      ],
      "outputs": [
        {
          "name": "",
          "type": "uint256",
          "internalType": "uint256"
        }
      ],
      "stateMutability": "view"
    },
    {
      "type": "function",
      "name": "createEvent",
      "inputs": [
        {
          "name": "tokenURI",
          "type": "string",
          "internalType": "string"
        },
        {
          "name": "_totalTickets",
          "type": "uint256",
          "internalType": "uint256"
        },
        {
          "name": "_ticketPrice",
          "type": "uint256",
          "internalType": "uint256"
        },
        {
          "name": "_ticketEndDate",
          "type": "uint256",
          "internalType": "uint256"
        },
        {
          "name": "_name",
          "type": "string",
          "internalType": "string"
        }
      ],
      "outputs": [],
      "stateMutability": "payable"
    },
    {
      "type": "function",
      "name": "creationFeePercentage",
      "inputs": [],
      "outputs": [
        {
          "name": "",
          "type": "uint256",
          "internalType": "uint256"
        }
      ],
      "stateMutability": "view"
    },
    {
      "type": "function",
      "name": "events",
      "inputs": [
        {
          "name": "",
          "type": "uint256",
          "internalType": "uint256"
        }
      ],
      "outputs": [
        {
          "name": "eventId",
          "type": "uint256",
          "internalType": "uint256"
        },
        {
          "name": "totalTickets",
          "type": "uint256",
          "internalType": "uint256"
        },
        {
          "name": "ticketsSold",
          "type": "uint256",
          "internalType": "uint256"
        },
        {
          "name": "ticketPrice",
          "type": "uint256",
          "internalType": "uint256"
        },
        {
          "name": "ticketStartDate",
          "type": "uint256",
          "internalType": "uint256"
        },
        {
          "name": "ticketEndDate",
          "type": "uint256",
          "internalType": "uint256"
        },
        {
          "name": "creator",
          "type": "address",
          "internalType": "address"
        },
        {
          "name": "ticketSold",
          "type": "bool",
          "internalType": "bool"
        },
        {
          "name": "name",
          "type": "string",
          "internalType": "string"
        }
      ],
      "stateMutability": "view"
    },
    {
      "type": "function",
      "name": "getApproved",
      "inputs": [
        {
          "name": "tokenId",
          "type": "uint256",
          "internalType": "uint256"
        }
      ],
      "outputs": [
        {
          "name": "",
          "type": "address",
          "internalType": "address"
        }
      ],
      "stateMutability": "view"
    },
    {
      "type": "function",
      "name": "getCreationFeePercentage",
      "inputs": [],
      "outputs": [
        {
          "name": "",
          "type": "uint256",
          "internalType": "uint256"
        }
      ],
      "stateMutability": "view"
    },
    {
      "type": "function",
      "name": "getPurchaseFeePercentage",
      "inputs": [],
      "outputs": [
        {
          "name": "",
          "type": "uint256",
          "internalType": "uint256"
        }
      ],
      "stateMutability": "view"
    },
    {
      "type": "function",
      "name": "getPurchaseInfo",
      "inputs": [
        {
          "name": "tokenID",
          "type": "uint256",
          "internalType": "uint256"
        }
      ],
      "outputs": [
        {
          "name": "",
          "type": "tuple[]",
          "internalType": "struct PurchaseInfo[]",
          "components": [
            {
              "name": "eventId",
              "type": "uint256",
              "internalType": "uint256"
            },
            {
              "name": "purchaseId",
              "type": "uint256",
              "internalType": "uint256"
            },
            {
              "name": "buyer",
              "type": "address",
              "internalType": "address"
            },
            {
              "name": "ticketsBought",
              "type": "uint256",
              "internalType": "uint256"
            },
            {
              "name": "totalPrice",
              "type": "uint256",
              "internalType": "uint256"
            },
            {
              "name": "purchaseTimestamp",
              "type": "uint256",
              "internalType": "uint256"
            }
          ]
        }
      ],
      "stateMutability": "view"
    },
    {
      "type": "function",
      "name": "getTicketInfo",
      "inputs": [
        {
          "name": "eventId",
          "type": "uint256",
          "internalType": "uint256"
        }
      ],
      "outputs": [
        {
          "name": "",
          "type": "tuple",
          "internalType": "struct EventInfo",
          "components": [
            {
              "name": "eventId",
              "type": "uint256",
              "internalType": "uint256"
            },
            {
              "name": "totalTickets",
              "type": "uint256",
              "internalType": "uint256"
            },
            {
              "name": "ticketsSold",
              "type": "uint256",
              "internalType": "uint256"
            },
            {
              "name": "ticketPrice",
              "type": "uint256",
              "internalType": "uint256"
            },
            {
              "name": "ticketStartDate",
              "type": "uint256",
              "internalType": "uint256"
            },
            {
              "name": "ticketEndDate",
              "type": "uint256",
              "internalType": "uint256"
            },
            {
              "name": "creator",
              "type": "address",
              "internalType": "address"
            },
            {
              "name": "ticketSold",
              "type": "bool",
              "internalType": "bool"
            },
            {
              "name": "name",
              "type": "string",
              "internalType": "string"
            }
          ]
        }
      ],
      "stateMutability": "view"
    },
    {
      "type": "function",
      "name": "getUserTickets",
      "inputs": [
        {
          "name": "user",
          "type": "address",
          "internalType": "address"
        }
      ],
      "outputs": [
        {
          "name": "",
          "type": "uint256[]",
          "internalType": "uint256[]"
        }
      ],
      "stateMutability": "view"
    },
    {
      "type": "function",
      "name": "isApprovedForAll",
      "inputs": [
        {
          "name": "owner",
          "type": "address",
          "internalType": "address"
        },
        {
          "name": "operator",
          "type": "address",
          "internalType": "address"
        }
      ],
      "outputs": [
        {
          "name": "",
          "type": "bool",
          "internalType": "bool"
        }
      ],
      "stateMutability": "view"
    },
    {
      "type": "function",
      "name": "name",
      "inputs": [],
      "outputs": [
        {
          "name": "",
          "type": "string",
          "internalType": "string"
        }
      ],
      "stateMutability": "view"
    },
    {
      "type": "function",
      "name": "owner",
      "inputs": [],
      "outputs": [
        {
          "name": "",
          "type": "address",
          "internalType": "address"
        }
      ],
      "stateMutability": "view"
    },
    {
      "type": "function",
      "name": "ownerOf",
      "inputs": [
        {
          "name": "tokenId",
          "type": "uint256",
          "internalType": "uint256"
        }
      ],
      "outputs": [
        {
          "name": "",
          "type": "address",
          "internalType": "address"
        }
      ],
      "stateMutability": "view"
    },
    {
      "type": "function",
      "name": "purchaseFeePercentage",
      "inputs": [],
      "outputs": [
        {
          "name": "",
          "type": "uint256",
          "internalType": "uint256"
        }
      ],
      "stateMutability": "view"
    },
    {
      "type": "function",
      "name": "purchaseTicket",
      "inputs": [
        {
          "name": "_tokenID",
          "type": "uint256",
          "internalType": "uint256"
        },
        {
          "name": "_ticketsToBuy",
          "type": "uint256",
          "internalType": "uint256"
        }
      ],
      "outputs": [],
      "stateMutability": "payable"
    },
    {
      "type": "function",
      "name": "renounceOwnership",
      "inputs": [],
      "outputs": [],
      "stateMutability": "nonpayable"
    },
    {
      "type": "function",
      "name": "safeTransferFrom",
      "inputs": [
        {
          "name": "from",
          "type": "address",
          "internalType": "address"
        },
        {
          "name": "to",
          "type": "address",
          "internalType": "address"
        },
        {
          "name": "tokenId",
          "type": "uint256",
          "internalType": "uint256"
        }
      ],
      "outputs": [],
      "stateMutability": "nonpayable"
    },
    {
      "type": "function",
      "name": "safeTransferFrom",
      "inputs": [
        {
          "name": "from",
          "type": "address",
          "internalType": "address"
        },
        {
          "name": "to",
          "type": "address",
          "internalType": "address"
        },
        {
          "name": "tokenId",
          "type": "uint256",
          "internalType": "uint256"
        },
        {
          "name": "data",
          "type": "bytes",
          "internalType": "bytes"
        }
      ],
      "outputs": [],
      "stateMutability": "nonpayable"
    },
    {
      "type": "function",
      "name": "setApprovalForAll",
      "inputs": [
        {
          "name": "operator",
          "type": "address",
          "internalType": "address"
        },
        {
          "name": "approved",
          "type": "bool",
          "internalType": "bool"
        }
      ],
      "outputs": [],
      "stateMutability": "nonpayable"
    },
    {
      "type": "function",
      "name": "supportsInterface",
      "inputs": [
        {
          "name": "interfaceId",
          "type": "bytes4",
          "internalType": "bytes4"
        }
      ],
      "outputs": [
        {
          "name": "",
          "type": "bool",
          "internalType": "bool"
        }
      ],
      "stateMutability": "view"
    },
    {
      "type": "function",
      "name": "symbol",
      "inputs": [],
      "outputs": [
        {
          "name": "",
          "type": "string",
          "internalType": "string"
        }
      ],
      "stateMutability": "view"
    },
    {
      "type": "function",
      "name": "ticketPurchases",
      "inputs": [
        {
          "name": "",
          "type": "uint256",
          "internalType": "uint256"
        },
        {
          "name": "",
          "type": "uint256",
          "internalType": "uint256"
        }
      ],
      "outputs": [
        {
          "name": "eventId",
          "type": "uint256",
          "internalType": "uint256"
        },
        {
          "name": "purchaseId",
          "type": "uint256",
          "internalType": "uint256"
        },
        {
          "name": "buyer",
          "type": "address",
          "internalType": "address"
        },
        {
          "name": "ticketsBought",
          "type": "uint256",
          "internalType": "uint256"
        },
        {
          "name": "totalPrice",
          "type": "uint256",
          "internalType": "uint256"
        },
        {
          "name": "purchaseTimestamp",
          "type": "uint256",
          "internalType": "uint256"
        }
      ],
      "stateMutability": "view"
    },
    {
      "type": "function",
      "name": "tokenURI",
      "inputs": [
        {
          "name": "tokenId",
          "type": "uint256",
          "internalType": "uint256"
        }
      ],
      "outputs": [
        {
          "name": "",
          "type": "string",
          "internalType": "string"
        }
      ],
      "stateMutability": "view"
    },
    {
      "type": "function",
      "name": "transferFrom",
      "inputs": [
        {
          "name": "from",
          "type": "address",
          "internalType": "address"
        },
        {
          "name": "to",
          "type": "address",
          "internalType": "address"
        },
        {
          "name": "tokenId",
          "type": "uint256",
          "internalType": "uint256"
        }
      ],
      "outputs": [],
      "stateMutability": "nonpayable"
    },
    {
      "type": "function",
      "name": "transferOwnership",
      "inputs": [
        {
          "name": "newOwner",
          "type": "address",
          "internalType": "address"
        }
      ],
      "outputs": [],
      "stateMutability": "nonpayable"
    },
    {
      "type": "function",
      "name": "updateCreationFeePercentage",
      "inputs": [
        {
          "name": "_creationFeePercentage",
          "type": "uint256",
          "internalType": "uint256"
        }
      ],
      "outputs": [],
      "stateMutability": "nonpayable"
    },
    {
      "type": "function",
      "name": "updatePurchaseFeePercentage",
      "inputs": [
        {
          "name": "_purchaseFeePercentage",
          "type": "uint256",
          "internalType": "uint256"
        }
      ],
      "outputs": [],
      "stateMutability": "nonpayable"
    },
    {
      "type": "function",
      "name": "userTickets",
      "inputs": [
        {
          "name": "",
          "type": "address",
          "internalType": "address"
        },
        {
          "name": "",
          "type": "uint256",
          "internalType": "uint256"
        }
      ],
      "outputs": [
        {
          "name": "",
          "type": "uint256",
          "internalType": "uint256"
        }
      ],
      "stateMutability": "view"
    },
    {
      "type": "event",
      "name": "Approval",
      "inputs": [
        {
          "name": "owner",
          "type": "address",
          "indexed": true,
          "internalType": "address"
        },
        {
          "name": "approved",
          "type": "address",
          "indexed": true,
          "internalType": "address"
        },
        {
          "name": "tokenId",
          "type": "uint256",
          "indexed": true,
          "internalType": "uint256"
        }
      ],
      "anonymous": false
    },
    {
      "type": "event",
      "name": "ApprovalForAll",
      "inputs": [
        {
          "name": "owner",
          "type": "address",
          "indexed": true,
          "internalType": "address"
        },
        {
          "name": "operator",
          "type": "address",
          "indexed": true,
          "internalType": "address"
        },
        {
          "name": "approved",
          "type": "bool",
          "indexed": false,
          "internalType": "bool"
        }
      ],
      "anonymous": false
    },
    {
      "type": "event",
      "name": "BatchMetadataUpdate",
      "inputs": [
        {
          "name": "_fromTokenId",
          "type": "uint256",
          "indexed": false,
          "internalType": "uint256"
        },
        {
          "name": "_toTokenId",
          "type": "uint256",
          "indexed": false,
          "internalType": "uint256"
        }
      ],
      "anonymous": false
    },
    {
      "type": "event",
      "name": "EventCreated",
      "inputs": [
        {
          "name": "eventId",
          "type": "uint256",
          "indexed": true,
          "internalType": "uint256"
        },
        {
          "name": "totalTickets",
          "type": "uint256",
          "indexed": false,
          "internalType": "uint256"
        },
        {
          "name": "ticketPrice",
          "type": "uint256",
          "indexed": false,
          "internalType": "uint256"
        },
        {
          "name": "ticketStartDate",
          "type": "uint256",
          "indexed": false,
          "internalType": "uint256"
        },
        {
          "name": "ticketEndDate",
          "type": "uint256",
          "indexed": false,
          "internalType": "uint256"
        },
        {
          "name": "eventName",
          "type": "string",
          "indexed": false,
          "internalType": "string"
        }
      ],
      "anonymous": false
    },
    {
      "type": "event",
      "name": "MetadataUpdate",
      "inputs": [
        {
          "name": "_tokenId",
          "type": "uint256",
          "indexed": false,
          "internalType": "uint256"
        }
      ],
      "anonymous": false
    },
    {
      "type": "event",
      "name": "OwnershipTransferred",
      "inputs": [
        {
          "name": "previousOwner",
          "type": "address",
          "indexed": true,
          "internalType": "address"
        },
        {
          "name": "newOwner",
          "type": "address",
          "indexed": true,
          "internalType": "address"
        }
      ],
      "anonymous": false
    },
    {
      "type": "event",
      "name": "TicketPurchased",
      "inputs": [
        {
          "name": "eventId",
          "type": "uint256",
          "indexed": true,
          "internalType": "uint256"
        },
        {
          "name": "buyer",
          "type": "address",
          "indexed": false,
          "internalType": "address"
        },
        {
          "name": "ticketsBought",
          "type": "uint256",
          "indexed": false,
          "internalType": "uint256"
        }
      ],
      "anonymous": false
    },
    {
      "type": "event",
      "name": "Transfer",
      "inputs": [
        {
          "name": "from",
          "type": "address",
          "indexed": true,
          "internalType": "address"
        },
        {
          "name": "to",
          "type": "address",
          "indexed": true,
          "internalType": "address"
        },
        {
          "name": "tokenId",
          "type": "uint256",
          "indexed": true,
          "internalType": "uint256"
        }
      ],
      "anonymous": false
    },
    {
      "type": "error",
      "name": "ERC721IncorrectOwner",
      "inputs": [
        {
          "name": "sender",
          "type": "address",
          "internalType": "address"
        },
        {
          "name": "tokenId",
          "type": "uint256",
          "internalType": "uint256"
        },
        {
          "name": "owner",
          "type": "address",
          "internalType": "address"
        }
      ]
    },
    {
      "type": "error",
      "name": "ERC721InsufficientApproval",
      "inputs": [
        {
          "name": "operator",
          "type": "address",
          "internalType": "address"
        },
        {
          "name": "tokenId",
          "type": "uint256",
          "internalType": "uint256"
        }
      ]
    },
    {
      "type": "error",
      "name": "ERC721InvalidApprover",
      "inputs": [
        {
          "name": "approver",
          "type": "address",
          "internalType": "address"
        }
      ]
    },
    {
      "type": "error",
      "name": "ERC721InvalidOperator",
      "inputs": [
        {
          "name": "operator",
          "type": "address",
          "internalType": "address"
        }
      ]
    },
    {
      "type": "error",
      "name": "ERC721InvalidOwner",
      "inputs": [
        {
          "name": "owner",
          "type": "address",
          "internalType": "address"
        }
      ]
    },
    {
      "type": "error",
      "name": "ERC721InvalidReceiver",
      "inputs": [
        {
          "name": "receiver",
          "type": "address",
          "internalType": "address"
        }
      ]
    },
    {
      "type": "error",
      "name": "ERC721InvalidSender",
      "inputs": [
        {
          "name": "sender",
          "type": "address",
          "internalType": "address"
        }
      ]
    },
    {
      "type": "error",
      "name": "ERC721NonexistentToken",
      "inputs": [
        {
          "name": "tokenId",
          "type": "uint256",
          "internalType": "uint256"
        }
      ]
    },
    {
      "type": "error",
      "name": "OwnableInvalidOwner",
      "inputs": [
        {
          "name": "owner",
          "type": "address",
          "internalType": "address"
        }
      ]
    },
    {
      "type": "error",
      "name": "OwnableUnauthorizedAccount",
      "inputs": [
        {
          "name": "account",
          "type": "address",
          "internalType": "address"
        }
      ]
    },
    {
      "type": "error",
      "name": "TicketEngine__EventCantCreateWithZeroTicketPrice",
      "inputs": []
    },
    {
      "type": "error",
      "name": "TicketEngine__EventCantCreateWithZeroTickets",
      "inputs": []
    },
    {
      "type": "error",
      "name": "TicketEngine__EventMustBeOfFuture",
      "inputs": []
    },
    {
      "type": "error",
      "name": "TicketEngine__EventTicketsSoldOut",
      "inputs": []
    },
    {
      "type": "error",
      "name": "TicketEngine__LessTicketsAvailable",
      "inputs": []
    },
    {
      "type": "error",
      "name": "TicketEngine__NeedsMoreThanZero",
      "inputs": []
    }
  ],
  "bytecode": {
    "object": "0x60806040523480156200001157600080fd5b506040516200272338038062002723833981016040819052620000349162000137565b336040518060400160405280600b81526020016a115d995b9d151a58dad95d60aa1b81525060405180604001604052806006815260200165151250d2d15560d21b815250816000908162000089919062000203565b50600162000098828262000203565b5050506001600160a01b038116620000ca57604051631e4fbdf760e01b81526000600482015260240160405180910390fd5b620000d581620000e5565b50600c91909155600d55620002cf565b600780546001600160a01b038381166001600160a01b0319831681179093556040519116919082907f8be0079c531659141344cd1fd0a4f28419497f9722a3daafe3b4186f6b6457e090600090a35050565b600080604083850312156200014b57600080fd5b505080516020909101519092909150565b634e487b7160e01b600052604160045260246000fd5b600181811c908216806200018757607f821691505b602082108103620001a857634e487b7160e01b600052602260045260246000fd5b50919050565b601f821115620001fe576000816000526020600020601f850160051c81016020861015620001d95750805b601f850160051c820191505b81811015620001fa57828155600101620001e5565b5050505b505050565b81516001600160401b038111156200021f576200021f6200015c565b620002378162000230845462000172565b84620001ae565b602080601f8311600181146200026f5760008415620002565750858301515b600019600386901b1c1916600185901b178555620001fa565b600085815260208120601f198616915b82811015620002a0578886015182559484019460019091019084016200027f565b5085821015620002bf5787850151600019600388901b60f8161c191681555b5050505050600190811b01905550565b61244480620002df6000396000f3fe6080604052600436106101cd5760003560e01c80638da5cb5b116100f7578063bdbbb0cb11610095578063e6ba269011610064578063e6ba26901461056c578063e985e9c51461057f578063f2fde38b1461059f578063ff99a063146105bf57600080fd5b8063bdbbb0cb14610503578063c87b56dd14610516578063cf260baf14610536578063d91043f21461055657600080fd5b8063a4646ba7116100d1578063a4646ba714610453578063b57b0de7146104ae578063b5e1a3c0146104ce578063b88d4fde146104e357600080fd5b80638da5cb5b1461040057806395d89b411461041e578063a22cb4651461043357600080fd5b806329520cae1161016f578063588750491161013e578063588750491461037e5780636352211e146103ab57806370a08231146103cb578063715018a6146103eb57600080fd5b806329520cae146103055780633df8cd721461032557806342842e0e14610349578063461c3e211461036957600080fd5b8063081812fc116101ab578063081812fc14610256578063095ea7b31461028e5780630b791430146102b057806323b872dd146102e557600080fd5b806301ffc9a7146101d25780630484a22f1461020757806306fdde0314610234575b600080fd5b3480156101de57600080fd5b506101f26101ed366004611c2b565b6105ec565b60405190151581526020015b60405180910390f35b34801561021357600080fd5b50610227610222366004611c64565b610617565b6040516101fe9190611c7f565b34801561024057600080fd5b50610249610683565b6040516101fe9190611d13565b34801561026257600080fd5b50610276610271366004611d26565b610715565b6040516001600160a01b0390911681526020016101fe565b34801561029a57600080fd5b506102ae6102a9366004611d3f565b61073e565b005b3480156102bc57600080fd5b506102d06102cb366004611d26565b61074d565b6040516101fe99989796959493929190611d69565b3480156102f157600080fd5b506102ae610300366004611dc8565b610832565b34801561031157600080fd5b506102ae610320366004611d26565b6108c2565b34801561033157600080fd5b5061033b600d5481565b6040519081526020016101fe565b34801561035557600080fd5b506102ae610364366004611dc8565b6108cf565b34801561037557600080fd5b50600d5461033b565b34801561038a57600080fd5b5061039e610399366004611d26565b6108ef565b6040516101fe9190611e04565b3480156103b757600080fd5b506102766103c6366004611d26565b6109a0565b3480156103d757600080fd5b5061033b6103e6366004611c64565b6109ab565b3480156103f757600080fd5b506102ae6109f3565b34801561040c57600080fd5b506007546001600160a01b0316610276565b34801561042a57600080fd5b50610249610a07565b34801561043f57600080fd5b506102ae61044e366004611e85565b610a16565b34801561045f57600080fd5b5061047361046e366004611ec1565b610a21565b6040805196875260208701959095526001600160a01b03909316938501939093526060840152608083019190915260a082015260c0016101fe565b3480156104ba57600080fd5b506102ae6104c9366004611d26565b610a7e565b3480156104da57600080fd5b50600c5461033b565b3480156104ef57600080fd5b506102ae6104fe366004611f6f565b610a8b565b6102ae610511366004611ec1565b610aa2565b34801561052257600080fd5b50610249610531366004611d26565b610dd3565b34801561054257600080fd5b5061033b610551366004611d3f565b610ee4565b34801561056257600080fd5b5061033b600c5481565b6102ae61057a36600461200b565b610f15565b34801561058b57600080fd5b506101f261059a3660046120bb565b6111ca565b3480156105ab57600080fd5b506102ae6105ba366004611c64565b6111f8565b3480156105cb57600080fd5b506105df6105da366004611d26565b611236565b6040516101fe91906120ee565b60006001600160e01b03198216632483248360e11b14806106115750610611826113ac565b92915050565b6001600160a01b03811660009081526009602090815260409182902080548351818402810184019094528084526060939283018282801561067757602002820191906000526020600020905b815481526020019060010190808311610663575b50505050509050919050565b60606000805461069290612177565b80601f01602080910402602001604051908101604052809291908181526020018280546106be90612177565b801561070b5780601f106106e05761010080835404028352916020019161070b565b820191906000526020600020905b8154815290600101906020018083116106ee57829003601f168201915b5050505050905090565b6000610720826113fc565b506000828152600460205260409020546001600160a01b0316610611565b610749828233611435565b5050565b600860205260009081526040902080546001820154600283015460038401546004850154600586015460068701546007880180549798969795969495939492936001600160a01b03831693600160a01b90930460ff169291906107af90612177565b80601f01602080910402602001604051908101604052809291908181526020018280546107db90612177565b80156108285780601f106107fd57610100808354040283529160200191610828565b820191906000526020600020905b81548152906001019060200180831161080b57829003601f168201915b5050505050905089565b6001600160a01b03821661086157604051633250574960e11b8152600060048201526024015b60405180910390fd5b600061086e838333611442565b9050836001600160a01b0316816001600160a01b0316146108bc576040516364283d7b60e01b81526001600160a01b0380861660048301526024820184905282166044820152606401610858565b50505050565b6108ca61153b565b600d55565b6108ea83838360405180602001604052806000815250610a8b565b505050565b6060600a6000838152602001908152602001600020805480602002602001604051908101604052809291908181526020016000905b828210156109955760008481526020908190206040805160c08101825260068602909201805483526001808201548486015260028201546001600160a01b03169284019290925260038101546060840152600481015460808401526005015460a08301529083529092019101610924565b505050509050919050565b6000610611826113fc565b60006001600160a01b0382166109d7576040516322718ad960e21b815260006004820152602401610858565b506001600160a01b031660009081526003602052604090205490565b6109fb61153b565b610a056000611568565b565b60606001805461069290612177565b6107493383836115ba565b600a6020528160005260406000208181548110610a3d57600080fd5b60009182526020909120600690910201805460018201546002830154600384015460048501546005909501549396509194506001600160a01b031692909186565b610a8661153b565b600c55565b610a96848484610832565b6108bc84848484611659565b8080600003610ac457604051630db8adc360e21b815260040160405180910390fd5b60008381526008602052604090206006810154600160a01b900460ff1615610aff576040516314bbeba160e01b815260040160405180910390fd5b80600201548160010154610b1391906121c7565b831115610b335760405163301e10c360e21b815260040160405180910390fd5b6000838260030154610b4591906121da565b90506000606482600d54610b5991906121da565b610b6391906121f1565b90506000610b718284612213565b905080341015610bd45760405162461bcd60e51b815260206004820152602860248201527f4c65737320616d6f756e742073656e7420746f20707572636861736520746865604482015267207469636b65747360c01b6064820152608401610858565b60068401546040516001600160a01b039091169084156108fc029085906000818181858888f19350505050158015610c10573d6000803e3d6000fd5b506007546040516001600160a01b039091169083156108fc029084906000818181858888f19350505050158015610c4b573d6000803e3d6000fd5b5060005b86811015610da457600b80549081906000610c6983612226565b9190505550610c783382611782565b610c8a81610c858b610dd3565b61179c565b33600081815260096020908152604080832080546001808201835591855283852001869055858452600a8352818420825160c0810184528f81528085018881529381019687526060810183815260038e810154608084019081524260a0850190815285548088018755958a52978920935160069095029093019384559451938301939093559551600280830180546001600160a01b0319166001600160a01b0390931692909217909155915192810192909255935160048201559051600590910155908701805491610d5b83612226565b909155505060408051338152602081018a905282917fdbaaf4c87ce30816c961a81d110622a3227ede77953d4383d514ff88ab2e0fd3910160405180910390a250600101610c4f565b508360010154846002015403610dca5760068401805460ff60a01b1916600160a01b1790555b50505050505050565b6060610dde826113fc565b5060008281526006602052604081208054610df890612177565b80601f0160208091040260200160405190810160405280929190818152602001828054610e2490612177565b8015610e715780601f10610e4657610100808354040283529160200191610e71565b820191906000526020600020905b815481529060010190602001808311610e5457829003601f168201915b505050505090506000610e8f60408051602081019091526000815290565b90508051600003610ea1575092915050565b815115610ed3578082604051602001610ebb92919061223f565b60405160208183030381529060405292505050919050565b610edc846117ec565b949350505050565b60096020528160005260406000208181548110610f0057600080fd5b90600052602060002001600091509150505481565b83838360008311610f3957604051630d959e9960e01b815260040160405180910390fd5b60008211610f5957604051625cb73f60e91b815260040160405180910390fd5b428111610f795760405163d54dc3f960e01b815260040160405180910390fd5b600b80549081906000610f8b83612226565b9190505550610f9a3382611782565b610fda818b8b8080601f01602080910402602001604051908101604052809392919081815260200183838082843760009201919091525061179c92505050565b60004290506040518061012001604052808381526020018a815260200160008152602001898152602001828152602001888152602001336001600160a01b031681526020016000151581526020018781525060086000848152602001908152602001600020600082015181600001556020820151816001015560408201518160020155606082015181600301556080820151816004015560a0820151816005015560c08201518160060160006101000a8154816001600160a01b0302191690836001600160a01b0316021790555060e08201518160060160146101000a81548160ff0219169083151502179055506101008201518160070190816110de91906122be565b5050506402540be4003410156111425760405162461bcd60e51b815260206004820152602360248201527f496e737566666963656e74206576656e74206372656174696f6e206665652073604482015262195b9d60ea1b6064820152608401610858565b6007546040516001600160a01b03909116906000906402540be4009082818181858883f1935050505015801561117c573d6000803e3d6000fd5b50817fcac4dbeec05014ff863d1e3cd4d7149cb64b523e05e11d3184b0331dce8946f18a8a848b8b6040516111b595949392919061237e565b60405180910390a25050505050505050505050565b6001600160a01b03918216600090815260056020908152604080832093909416825291909152205460ff1690565b61120061153b565b6001600160a01b03811661122a57604051631e4fbdf760e01b815260006004820152602401610858565b61123381611568565b50565b61129060405180610120016040528060008152602001600081526020016000815260200160008152602001600081526020016000815260200160006001600160a01b03168152602001600015158152602001606081525090565b600082815260086020908152604091829020825161012081018452815481526001820154928101929092526002810154928201929092526003820154606082015260048201546080820152600582015460a082015260068201546001600160a01b03811660c0830152600160a01b900460ff16151560e08201526007820180549192916101008401919061132390612177565b80601f016020809104026020016040519081016040528092919081815260200182805461134f90612177565b801561139c5780601f106113715761010080835404028352916020019161139c565b820191906000526020600020905b81548152906001019060200180831161137f57829003601f168201915b5050505050815250509050919050565b60006001600160e01b031982166380ac58cd60e01b14806113dd57506001600160e01b03198216635b5e139f60e01b145b8061061157506301ffc9a760e01b6001600160e01b0319831614610611565b6000818152600260205260408120546001600160a01b03168061061157604051637e27328960e01b815260048101849052602401610858565b6108ea8383836001611861565b6000828152600260205260408120546001600160a01b039081169083161561146f5761146f818486611967565b6001600160a01b038116156114ad5761148c600085600080611861565b6001600160a01b038116600090815260036020526040902080546000190190555b6001600160a01b038516156114dc576001600160a01b0385166000908152600360205260409020805460010190555b60008481526002602052604080822080546001600160a01b0319166001600160a01b0389811691821790925591518793918516917fddf252ad1be2c89b69c2b068fc378daa952ba7f163c4a11628f55a4df523b3ef91a4949350505050565b6007546001600160a01b03163314610a055760405163118cdaa760e01b8152336004820152602401610858565b600780546001600160a01b038381166001600160a01b0319831681179093556040519116919082907f8be0079c531659141344cd1fd0a4f28419497f9722a3daafe3b4186f6b6457e090600090a35050565b6001600160a01b0382166115ec57604051630b61174360e31b81526001600160a01b0383166004820152602401610858565b6001600160a01b03838116600081815260056020908152604080832094871680845294825291829020805460ff191686151590811790915591519182527f17307eab39ab6107e8899845ad3d59bd9653f200f220920489ca2b5937696c31910160405180910390a3505050565b6001600160a01b0383163b156108bc57604051630a85bd0160e11b81526001600160a01b0384169063150b7a029061169b9033908890879087906004016123b4565b6020604051808303816000875af19250505080156116d6575060408051601f3d908101601f191682019092526116d3918101906123f1565b60015b61173f573d808015611704576040519150601f19603f3d011682016040523d82523d6000602084013e611709565b606091505b50805160000361173757604051633250574960e11b81526001600160a01b0385166004820152602401610858565b805181602001fd5b6001600160e01b03198116630a85bd0160e11b1461177b57604051633250574960e11b81526001600160a01b0385166004820152602401610858565b5050505050565b6107498282604051806020016040528060008152506119cb565b60008281526006602052604090206117b482826122be565b506040518281527ff8e1a15aba9398e019f0b49df1a4fde98ee17ae345cb5f6b5e2c27f5033e8ce79060200160405180910390a15050565b60606117f7826113fc565b50600061180f60408051602081019091526000815290565b9050600081511161182f576040518060200160405280600081525061185a565b80611839846119e2565b60405160200161184a92919061223f565b6040516020818303038152906040525b9392505050565b808061187557506001600160a01b03821615155b15611937576000611885846113fc565b90506001600160a01b038316158015906118b15750826001600160a01b0316816001600160a01b031614155b80156118c457506118c281846111ca565b155b156118ed5760405163a9fbf51f60e01b81526001600160a01b0384166004820152602401610858565b81156119355783856001600160a01b0316826001600160a01b03167f8c5be1e5ebec7d5bd14f71427d1e84f3dd0314c0f7b2291e5b200ac8c7c3b92560405160405180910390a45b505b5050600090815260046020526040902080546001600160a01b0319166001600160a01b0392909216919091179055565b611972838383611a75565b6108ea576001600160a01b0383166119a057604051637e27328960e01b815260048101829052602401610858565b60405163177e802f60e01b81526001600160a01b038316600482015260248101829052604401610858565b6119d58383611ad8565b6108ea6000848484611659565b606060006119ef83611b3d565b600101905060008167ffffffffffffffff811115611a0f57611a0f611ee3565b6040519080825280601f01601f191660200182016040528015611a39576020820181803683370190505b5090508181016020015b600019016f181899199a1a9b1b9c1cb0b131b232b360811b600a86061a8153600a8504945084611a4357509392505050565b60006001600160a01b03831615801590610edc5750826001600160a01b0316846001600160a01b03161480611aaf5750611aaf84846111ca565b80610edc5750506000908152600460205260409020546001600160a01b03908116911614919050565b6001600160a01b038216611b0257604051633250574960e11b815260006004820152602401610858565b6000611b1083836000611442565b90506001600160a01b038116156108ea576040516339e3563760e11b815260006004820152602401610858565b60008072184f03e93ff9f4daa797ed6e38ed64bf6a1f0160401b8310611b7c5772184f03e93ff9f4daa797ed6e38ed64bf6a1f0160401b830492506040015b6d04ee2d6d415b85acef81000000008310611ba8576d04ee2d6d415b85acef8100000000830492506020015b662386f26fc100008310611bc657662386f26fc10000830492506010015b6305f5e1008310611bde576305f5e100830492506008015b6127108310611bf257612710830492506004015b60648310611c04576064830492506002015b600a83106106115760010192915050565b6001600160e01b03198116811461123357600080fd5b600060208284031215611c3d57600080fd5b813561185a81611c15565b80356001600160a01b0381168114611c5f57600080fd5b919050565b600060208284031215611c7657600080fd5b61185a82611c48565b6020808252825182820181905260009190848201906040850190845b81811015611cb757835183529284019291840191600101611c9b565b50909695505050505050565b60005b83811015611cde578181015183820152602001611cc6565b50506000910152565b60008151808452611cff816020860160208601611cc3565b601f01601f19169290920160200192915050565b60208152600061185a6020830184611ce7565b600060208284031215611d3857600080fd5b5035919050565b60008060408385031215611d5257600080fd5b611d5b83611c48565b946020939093013593505050565b60006101208b83528a60208401528960408401528860608401528760808401528660a084015260018060a01b03861660c084015284151560e084015280610100840152611db881840185611ce7565b9c9b505050505050505050505050565b600080600060608486031215611ddd57600080fd5b611de684611c48565b9250611df460208501611c48565b9150604084013590509250925092565b602080825282518282018190526000919060409081850190868401855b82811015611e78578151805185528681015187860152858101516001600160a01b031686860152606080820151908601526080808201519086015260a0908101519085015260c09093019290850190600101611e21565b5091979650505050505050565b60008060408385031215611e9857600080fd5b611ea183611c48565b915060208301358015158114611eb657600080fd5b809150509250929050565b60008060408385031215611ed457600080fd5b50508035926020909101359150565b634e487b7160e01b600052604160045260246000fd5b600067ffffffffffffffff80841115611f1457611f14611ee3565b604051601f8501601f19908116603f01168101908282118183101715611f3c57611f3c611ee3565b81604052809350858152868686011115611f5557600080fd5b858560208301376000602087830101525050509392505050565b60008060008060808587031215611f8557600080fd5b611f8e85611c48565b9350611f9c60208601611c48565b925060408501359150606085013567ffffffffffffffff811115611fbf57600080fd5b8501601f81018713611fd057600080fd5b611fdf87823560208401611ef9565b91505092959194509250565b600082601f830112611ffc57600080fd5b61185a83833560208501611ef9565b60008060008060008060a0878903121561202457600080fd5b863567ffffffffffffffff8082111561203c57600080fd5b818901915089601f83011261205057600080fd5b81358181111561205f57600080fd5b8a602082850101111561207157600080fd5b6020928301985096509088013594506040880135935060608801359250608088013590808211156120a157600080fd5b506120ae89828a01611feb565b9150509295509295509295565b600080604083850312156120ce57600080fd5b6120d783611c48565b91506120e560208401611c48565b90509250929050565b6020815281516020820152602082015160408201526040820151606082015260608201516080820152608082015160a082015260a082015160c0820152600060c083015161214760e08401826001600160a01b03169052565b5060e083015161010061215d8185018315159052565b840151610120848101529050610edc610140840182611ce7565b600181811c9082168061218b57607f821691505b6020821081036121ab57634e487b7160e01b600052602260045260246000fd5b50919050565b634e487b7160e01b600052601160045260246000fd5b81810381811115610611576106116121b1565b8082028115828204841417610611576106116121b1565b60008261220e57634e487b7160e01b600052601260045260246000fd5b500490565b80820180821115610611576106116121b1565b600060018201612238576122386121b1565b5060010190565b60008351612251818460208801611cc3565b835190830190612265818360208801611cc3565b01949350505050565b601f8211156108ea576000816000526020600020601f850160051c810160208610156122975750805b601f850160051c820191505b818110156122b6578281556001016122a3565b505050505050565b815167ffffffffffffffff8111156122d8576122d8611ee3565b6122ec816122e68454612177565b8461226e565b602080601f83116001811461232157600084156123095750858301515b600019600386901b1c1916600185901b1785556122b6565b600085815260208120601f198616915b8281101561235057888601518255948401946001909101908401612331565b508582101561236e5787850151600019600388901b60f8161c191681555b5050505050600190811b01905550565b85815284602082015283604082015282606082015260a0608082015260006123a960a0830184611ce7565b979650505050505050565b6001600160a01b03858116825284166020820152604081018390526080606082018190526000906123e790830184611ce7565b9695505050505050565b60006020828403121561240357600080fd5b815161185a81611c1556fea2646970667358221220db2b865064a32d38a588cad8efd9707fba7ec23975571b1beeac87e085fad0f864736f6c63430008180033",
    "linkReferences": {}
  },
  "methodIdentifiers": {
    "approve(address,uint256)": "095ea7b3",
    "balanceOf(address)": "70a08231",
    "createEvent(string,uint256,uint256,uint256,string)": "e6ba2690",
    "creationFeePercentage()": "d91043f2",
    "events(uint256)": "0b791430",
    "getApproved(uint256)": "081812fc",
    "getCreationFeePercentage()": "b5e1a3c0",
    "getPurchaseFeePercentage()": "461c3e21",
    "getPurchaseInfo(uint256)": "58875049",
    "getTicketInfo(uint256)": "ff99a063",
    "getUserTickets(address)": "0484a22f",
    "isApprovedForAll(address,address)": "e985e9c5",
    "name()": "06fdde03",
    "owner()": "8da5cb5b",
    "ownerOf(uint256)": "6352211e",
    "purchaseFeePercentage()": "3df8cd72",
    "purchaseTicket(uint256,uint256)": "bdbbb0cb",
    "renounceOwnership()": "715018a6",
    "safeTransferFrom(address,address,uint256)": "42842e0e",
    "safeTransferFrom(address,address,uint256,bytes)": "b88d4fde",
    "setApprovalForAll(address,bool)": "a22cb465",
    "supportsInterface(bytes4)": "01ffc9a7",
    "symbol()": "95d89b41",
    "ticketPurchases(uint256,uint256)": "a4646ba7",
    "tokenURI(uint256)": "c87b56dd",
    "transferFrom(address,address,uint256)": "23b872dd",
    "transferOwnership(address)": "f2fde38b",
    "updateCreationFeePercentage(uint256)": "b57b0de7",
    "updatePurchaseFeePercentage(uint256)": "29520cae",
    "userTickets(address,uint256)": "cf260baf"
  },
  "id": 17
}